:020000020000FC
:02000000CCC072
:02004C00D2C020
:1000600000007B01A901DD0138027D02CB02F6020E
:100070005303BB0330047004FB0447059705EC05EC
:10008000A60677076108E008F7099B068306730652
:100090009B06730693068306730693067306A306F0
:1000A0008B067B06A3067B069B068B067B069B06C0
:1000B0007B069B068B0683069B0683063306430658
:1000C0005B0633065B06330643064B0633064B06D8
:1000D00033063B064B0633063B06414202035A05F4
:1000E000620572058B06610463065B0653064A4B84
:1000F0000405520552054B065A0563067273040542
:1001000083067B06730683067306830661025B061D
:10011000630669025B066306830661025B0663068B
:100120008283040573067B0643065B0673069B0603
:10013000830673065B067306330643069B06930627
:1001400053063306A3068B067B064B063B067B064F
:1001500063064B06222304053A0522053A053306B9
:100160003B064104220532054205222304052A05E7
:100170003205191A0304323304051A1B04052A2B0D
:10018000040542054A4B04054205430642054A055B
:1001900049043A054A054142030404E00EBF0FE555
:1001A0000DBF00270ABB0FEF07BB04BB01BB75D017
:1001B0007ED009B30030E9F317D00BE003BF04EFA2
:1001C0000CBF02E009BF00E40FBD09E00EBD00272F
:1001D0000BBD0ABD112721E07727789470FFFECF71
:1001E00009B30030E9F7E5CFB0E0A0E6D2E0C0E81F
:1001F00008952A9561F5103059F41991103011F4D1
:100200003ED027C0F0E0EAE80D91E00F0027F01F94
:10021000059120E237E030233A9511F02695FCCF86
:10022000069506950695302F000F531711F0532FA2
:1002300061E0EF93FF93F0E0E0E6E00F0027F01FAE
:10024000059135913BBD0ABD1A95FF91EF9120FFB5
:1002500001D01895613079F401E03327503019F45A
:1002600035BB0C943E01351724F4340F000F0C9469
:100270003301009508BB65BB660F63950895F8943C
:1002800000E00FBD09E00EBD002703BF0CBF09BF92
:1002900005BB009508BB71E0089508E033274427AB
:1002A000353124F4300F43950C94500108959CDFB0
:1002B00000E00D9306E0099300E00D9306E009933A
:1002C00006E00D9304E0099300E00D9306E0099326
:1002D00000E00D9306E0099306E00D9304E0099316
:1002E00000E00D9306E0099300E00D9306E009930A
:1002F00006E00D9304E0099300E00D9306E00993F6
:1003000000E00D9306E0099306E00D9304E00993E5
:100310000AE00D9306E009930AE00D9306E00993C5
:1003200000E10D9304E0099304E10D9306E00993C5
:1003300004E10D9306E009930AE10D9304E00993AB
:100340000EE10D9306E009930EE10D9306E009938B
:1003500004E20D9304E0099308E20D9306E009938B
:1003600008E20D9306E009930EE20D9304E0099371
:1003700000E00D9306E0099300E00D9306E0099379
:1003800006E00D9304E0099300E00D9306E0099365
:1003900000E00D9306E0099306E00D9304E0099355
:1003A00000E00D9306E0099300E00D9306E0099349
:1003B00006E00D9304E0099300E00D9306E0099335
:1003C00000E00D9306E0099306E00D9304E0099325
:1003D0000AE00D9306E009930AE00D9306E0099305
:1003E00000E10D9304E0099304E10D9306E0099305
:1003F00004E10D9306E009930AE10D9304E00993EB
:100400000EE10D9306E009930EE10D9306E00993CA
:1004100004E20D9304E0099308E20D9306E00993CA
:1004200008E20D9306E009930EE20D9304E00993B0
:1004300002E30D9306E0099302E30D9306E00993AE
:1004400008E30D9304E0099302E30D9306E009939A
:1004500002E30D9306E0099308E30D9304E009938A
:1004600002E30D9306E0099302E30D9306E009937E
:1004700008E30D9304E0099302E30D9306E009936A
:1004800002E30D9306E0099308E30D9304E009935A
:100490000CE30D9306E009930CE30D9306E009933A
:1004A00002E40D9304E009930CE30D9306E0099335
:1004B0000CE30D9306E0099302E40D9304E0099325
:1004C00006E40D9306E0099306E40D9306E0099314
:1004D0000CE40D9308E0099304E50D930AE00993F9
:1004E0000EE50D9308E1099306E70D9306E00993E5
:1004F00004E50D930AE009930CE70D930EE00993D0
:1005000006E70D9306E0099304E50D930AE00993CD
:100510000EE50D9308E1099306E70D9306E00993B4
:1005200004E50D930AE009930AE80D9300E10993AD
:100530000AE90D9304E009930AE90D9304E0099395
:100540000EE90D9308E0099306EA0D9304E0099380
:100550000AEA0D9304E009930EE90D9308E009936C
:100560000AEA0D9304E0099306EA0D9304E0099367
:100570000EEA0D9304E009930AEA0D9304E009934F
:100580000EEA0D9304E009930AEA0D9304E009933F
:1005900002EB0D9302E0099306EA0D9304E0099340
:1005A0000AEA0D9302E0099306EA0D9304E0099329
:1005B0000AEA0D9302E0099300EB0D9302E0099320
:1005C00004EB0D9302E0099306EA0D9304E009930E
:1005D00000EB0D9302E0099306EA0D9304E0099302
:1005E00006EB0D9306E009930CEB0D9302E00993E3
:1005F0000EEB0D9304E009930CEB0D9302E00993CD
:100600000EEB0D9304E0099302EC0D9302E00993C5
:100610000CEB0D9302E0099304EC0D9306E00993B3
:1006200006EA0D9304E009930AEA0D9302E00993A8
:1006300000EB0D9302E0099302EB0D9302E00993A6
:1006400006EA0D9302E009930EEB0D9304E0099383
:100650000AE90D9304E009930AE90D9304E0099374
:100660000EE90D9308E0099306EA0D9304E009935F
:100670000AEA0D9304E009930EE90D9308E009934B
:100680000AEA0D9304E0099306EA0D9304E0099346
:100690000EEA0D9304E009930AEA0D9304E009932E
:1006A0000EEA0D9304E009930AEA0D9304E009931E
:1006B00002EB0D9302E0099306EA0D9304E009931F
:1006C0000AEA0D9302E0099306EA0D9304E0099308
:1006D0000AEA0D9302E0099300EB0D9302E00993FF
:1006E00004EB0D9302E0099306EA0D9304E00993ED
:1006F00000EB0D9302E0099306EA0D9304E00993E1
:1007000006EB0D9306E009930CEB0D9302E00993C1
:100710000EEB0D9304E009930CEB0D9302E00993AB
:100720000EEB0D9304E0099302EC0D9302E00993A4
:100730000CEB0D9302E0099304EC0D9306E0099392
:1007400006EA0D9304E009930AEA0D9302E0099387
:1007500000EB0D9302E0099302EB0D9302E0099385
:1007600006EA0D9302E009930EEB0D9304E0099362
:100770000CEB0D9302E0099304EC0D9306E0099352
:100780000AEC0D930CE2099306EA0D9304E0099339
:100790000AEA0D9302E0099300EB0D9302E009933E
:1007A00002EB0D9302E0099304EC0D9306E009932C
:1007B0000CEB0D9302E0099304EC0D9306E0099312
:1007C00004E50D930AE009930EE50D9308E1099302
:1007D00006E70D9306E0099304E50D930AE00993FB
:1007E0000CE70D930EE0099306E70D9306E00993DD
:1007F00004E50D930AE009930EE50D9302E10993D8
:1008000006EF0D9308E1099300E00D9300E00993D2
:02081000089549
:00000001FF
